{
  "_format": "hh-sol-artifact-1",
  "contractName": "FitToken",
  "sourceName": "contracts/FitToken.sol",
  "abi": [
    {
      "inputs": [],
      "stateMutability": "nonpayable",
      "type": "constructor"
    },
    {
      "inputs": [
        {
          "internalType": "address",
          "name": "spender",
          "type": "address"
        },
        {
          "internalType": "uint256",
          "name": "allowance",
          "type": "uint256"
        },
        {
          "internalType": "uint256",
          "name": "needed",
          "type": "uint256"
        }
      ],
      "name": "ERC20InsufficientAllowance",
      "type": "error"
    },
    {
      "inputs": [
        {
          "internalType": "address",
          "name": "sender",
          "type": "address"
        },
        {
          "internalType": "uint256",
          "name": "balance",
          "type": "uint256"
        },
        {
          "internalType": "uint256",
          "name": "needed",
          "type": "uint256"
        }
      ],
      "name": "ERC20InsufficientBalance",
      "type": "error"
    },
    {
      "inputs": [
        {
          "internalType": "address",
          "name": "approver",
          "type": "address"
        }
      ],
      "name": "ERC20InvalidApprover",
      "type": "error"
    },
    {
      "inputs": [
        {
          "internalType": "address",
          "name": "receiver",
          "type": "address"
        }
      ],
      "name": "ERC20InvalidReceiver",
      "type": "error"
    },
    {
      "inputs": [
        {
          "internalType": "address",
          "name": "sender",
          "type": "address"
        }
      ],
      "name": "ERC20InvalidSender",
      "type": "error"
    },
    {
      "inputs": [
        {
          "internalType": "address",
          "name": "spender",
          "type": "address"
        }
      ],
      "name": "ERC20InvalidSpender",
      "type": "error"
    },
    {
      "inputs": [
        {
          "internalType": "address",
          "name": "owner",
          "type": "address"
        }
      ],
      "name": "OwnableInvalidOwner",
      "type": "error"
    },
    {
      "inputs": [
        {
          "internalType": "address",
          "name": "account",
          "type": "address"
        }
      ],
      "name": "OwnableUnauthorizedAccount",
      "type": "error"
    },
    {
      "inputs": [],
      "name": "ReentrancyGuardReentrantCall",
      "type": "error"
    },
    {
      "anonymous": false,
      "inputs": [
        {
          "indexed": true,
          "internalType": "address",
          "name": "user",
          "type": "address"
        },
        {
          "indexed": false,
          "internalType": "uint256",
          "name": "steps",
          "type": "uint256"
        },
        {
          "indexed": false,
          "internalType": "uint256",
          "name": "workouts",
          "type": "uint256"
        },
        {
          "indexed": false,
          "internalType": "uint256",
          "name": "tokensEarned",
          "type": "uint256"
        }
      ],
      "name": "ActivityRecorded",
      "type": "event"
    },
    {
      "anonymous": false,
      "inputs": [
        {
          "indexed": true,
          "internalType": "address",
          "name": "owner",
          "type": "address"
        },
        {
          "indexed": true,
          "internalType": "address",
          "name": "spender",
          "type": "address"
        },
        {
          "indexed": false,
          "internalType": "uint256",
          "name": "value",
          "type": "uint256"
        }
      ],
      "name": "Approval",
      "type": "event"
    },
    {
      "anonymous": false,
      "inputs": [
        {
          "indexed": true,
          "internalType": "address",
          "name": "user",
          "type": "address"
        },
        {
          "indexed": false,
          "internalType": "uint256",
          "name": "milestoneId",
          "type": "uint256"
        },
        {
          "indexed": false,
          "internalType": "uint256",
          "name": "reward",
          "type": "uint256"
        }
      ],
      "name": "MilestoneCompleted",
      "type": "event"
    },
    {
      "anonymous": false,
      "inputs": [
        {
          "indexed": false,
          "internalType": "uint256",
          "name": "milestoneId",
          "type": "uint256"
        },
        {
          "indexed": false,
          "internalType": "uint256",
          "name": "stepsRequired",
          "type": "uint256"
        },
        {
          "indexed": false,
          "internalType": "uint256",
          "name": "workoutsRequired",
          "type": "uint256"
        },
        {
          "indexed": false,
          "internalType": "uint256",
          "name": "reward",
          "type": "uint256"
        }
      ],
      "name": "MilestoneCreated",
      "type": "event"
    },
    {
      "anonymous": false,
      "inputs": [
        {
          "indexed": true,
          "internalType": "address",
          "name": "previousOwner",
          "type": "address"
        },
        {
          "indexed": true,
          "internalType": "address",
          "name": "newOwner",
          "type": "address"
        }
      ],
      "name": "OwnershipTransferred",
      "type": "event"
    },
    {
      "anonymous": false,
      "inputs": [
        {
          "indexed": true,
          "internalType": "address",
          "name": "from",
          "type": "address"
        },
        {
          "indexed": true,
          "internalType": "address",
          "name": "to",
          "type": "address"
        },
        {
          "indexed": false,
          "internalType": "uint256",
          "name": "value",
          "type": "uint256"
        }
      ],
      "name": "Transfer",
      "type": "event"
    },
    {
      "inputs": [],
      "name": "MAX_DAILY_TOKENS",
      "outputs": [
        {
          "internalType": "uint256",
          "name": "",
          "type": "uint256"
        }
      ],
      "stateMutability": "view",
      "type": "function"
    },
    {
      "inputs": [],
      "name": "TOKENS_PER_STEP",
      "outputs": [
        {
          "internalType": "uint256",
          "name": "",
          "type": "uint256"
        }
      ],
      "stateMutability": "view",
      "type": "function"
    },
    {
      "inputs": [],
      "name": "TOKENS_PER_WORKOUT",
      "outputs": [
        {
          "internalType": "uint256",
          "name": "",
          "type": "uint256"
        }
      ],
      "stateMutability": "view",
      "type": "function"
    },
    {
      "inputs": [
        {
          "internalType": "address",
          "name": "owner",
          "type": "address"
        },
        {
          "internalType": "address",
          "name": "spender",
          "type": "address"
        }
      ],
      "name": "allowance",
      "outputs": [
        {
          "internalType": "uint256",
          "name": "",
          "type": "uint256"
        }
      ],
      "stateMutability": "view",
      "type": "function"
    },
    {
      "inputs": [
        {
          "internalType": "address",
          "name": "spender",
          "type": "address"
        },
        {
          "internalType": "uint256",
          "name": "value",
          "type": "uint256"
        }
      ],
      "name": "approve",
      "outputs": [
        {
          "internalType": "bool",
          "name": "",
          "type": "bool"
        }
      ],
      "stateMutability": "nonpayable",
      "type": "function"
    },
    {
      "inputs": [
        {
          "internalType": "address",
          "name": "account",
          "type": "address"
        }
      ],
      "name": "balanceOf",
      "outputs": [
        {
          "internalType": "uint256",
          "name": "",
          "type": "uint256"
        }
      ],
      "stateMutability": "view",
      "type": "function"
    },
    {
      "inputs": [
        {
          "internalType": "uint256",
          "name": "stepsRequired",
          "type": "uint256"
        },
        {
          "internalType": "uint256",
          "name": "workoutsRequired",
          "type": "uint256"
        },
        {
          "internalType": "uint256",
          "name": "tokenReward",
          "type": "uint256"
        }
      ],
      "name": "createMilestone",
      "outputs": [],
      "stateMutability": "nonpayable",
      "type": "function"
    },
    {
      "inputs": [],
      "name": "decimals",
      "outputs": [
        {
          "internalType": "uint8",
          "name": "",
          "type": "uint8"
        }
      ],
      "stateMutability": "view",
      "type": "function"
    },
    {
      "inputs": [
        {
          "internalType": "uint256",
          "name": "milestoneId",
          "type": "uint256"
        }
      ],
      "name": "getMilestone",
      "outputs": [
        {
          "components": [
            {
              "internalType": "uint256",
              "name": "stepsRequired",
              "type": "uint256"
            },
            {
              "internalType": "uint256",
              "name": "workoutsRequired",
              "type": "uint256"
            },
            {
              "internalType": "uint256",
              "name": "tokenReward",
              "type": "uint256"
            },
            {
              "internalType": "bool",
              "name": "isActive",
              "type": "bool"
            }
          ],
          "internalType": "struct FitToken.Milestone",
          "name": "",
          "type": "tuple"
        }
      ],
      "stateMutability": "view",
      "type": "function"
    },
    {
      "inputs": [
        {
          "internalType": "address",
          "name": "user",
          "type": "address"
        }
      ],
      "name": "getUserActivity",
      "outputs": [
        {
          "components": [
            {
              "internalType": "uint256",
              "name": "totalSteps",
              "type": "uint256"
            },
            {
              "internalType": "uint256",
              "name": "totalWorkouts",
              "type": "uint256"
            },
            {
              "internalType": "uint256",
              "name": "lastActivityTimestamp",
              "type": "uint256"
            },
            {
              "internalType": "uint256",
              "name": "totalTokensEarned",
              "type": "uint256"
            }
          ],
          "internalType": "struct FitToken.UserActivity",
          "name": "",
          "type": "tuple"
        }
      ],
      "stateMutability": "view",
      "type": "function"
    },
    {
      "inputs": [
        {
          "internalType": "uint256",
          "name": "",
          "type": "uint256"
        }
      ],
      "name": "milestones",
      "outputs": [
        {
          "internalType": "uint256",
          "name": "stepsRequired",
          "type": "uint256"
        },
        {
          "internalType": "uint256",
          "name": "workoutsRequired",
          "type": "uint256"
        },
        {
          "internalType": "uint256",
          "name": "tokenReward",
          "type": "uint256"
        },
        {
          "internalType": "bool",
          "name": "isActive",
          "type": "bool"
        }
      ],
      "stateMutability": "view",
      "type": "function"
    },
    {
      "inputs": [],
      "name": "name",
      "outputs": [
        {
          "internalType": "string",
          "name": "",
          "type": "string"
        }
      ],
      "stateMutability": "view",
      "type": "function"
    },
    {
      "inputs": [],
      "name": "nextMilestoneId",
      "outputs": [
        {
          "internalType": "uint256",
          "name": "",
          "type": "uint256"
        }
      ],
      "stateMutability": "view",
      "type": "function"
    },
    {
      "inputs": [],
      "name": "owner",
      "outputs": [
        {
          "internalType": "address",
          "name": "",
          "type": "address"
        }
      ],
      "stateMutability": "view",
      "type": "function"
    },
    {
      "inputs": [
        {
          "internalType": "address",
          "name": "user",
          "type": "address"
        },
        {
          "internalType": "uint256",
          "name": "steps",
          "type": "uint256"
        },
        {
          "internalType": "uint256",
          "name": "workouts",
          "type": "uint256"
        }
      ],
      "name": "recordActivity",
      "outputs": [],
      "stateMutability": "nonpayable",
      "type": "function"
    },
    {
      "inputs": [],
      "name": "renounceOwnership",
      "outputs": [],
      "stateMutability": "nonpayable",
      "type": "function"
    },
    {
      "inputs": [],
      "name": "symbol",
      "outputs": [
        {
          "internalType": "string",
          "name": "",
          "type": "string"
        }
      ],
      "stateMutability": "view",
      "type": "function"
    },
    {
      "inputs": [],
      "name": "totalSupply",
      "outputs": [
        {
          "internalType": "uint256",
          "name": "",
          "type": "uint256"
        }
      ],
      "stateMutability": "view",
      "type": "function"
    },
    {
      "inputs": [
        {
          "internalType": "address",
          "name": "to",
          "type": "address"
        },
        {
          "internalType": "uint256",
          "name": "value",
          "type": "uint256"
        }
      ],
      "name": "transfer",
      "outputs": [
        {
          "internalType": "bool",
          "name": "",
          "type": "bool"
        }
      ],
      "stateMutability": "nonpayable",
      "type": "function"
    },
    {
      "inputs": [
        {
          "internalType": "address",
          "name": "from",
          "type": "address"
        },
        {
          "internalType": "address",
          "name": "to",
          "type": "address"
        },
        {
          "internalType": "uint256",
          "name": "value",
          "type": "uint256"
        }
      ],
      "name": "transferFrom",
      "outputs": [
        {
          "internalType": "bool",
          "name": "",
          "type": "bool"
        }
      ],
      "stateMutability": "nonpayable",
      "type": "function"
    },
    {
      "inputs": [
        {
          "internalType": "address",
          "name": "newOwner",
          "type": "address"
        }
      ],
      "name": "transferOwnership",
      "outputs": [],
      "stateMutability": "nonpayable",
      "type": "function"
    },
    {
      "inputs": [
        {
          "internalType": "address",
          "name": "",
          "type": "address"
        }
      ],
      "name": "userActivities",
      "outputs": [
        {
          "internalType": "uint256",
          "name": "totalSteps",
          "type": "uint256"
        },
        {
          "internalType": "uint256",
          "name": "totalWorkouts",
          "type": "uint256"
        },
        {
          "internalType": "uint256",
          "name": "lastActivityTimestamp",
          "type": "uint256"
        },
        {
          "internalType": "uint256",
          "name": "totalTokensEarned",
          "type": "uint256"
        }
      ],
      "stateMutability": "view",
      "type": "function"
    },
    {
      "inputs": [
        {
          "internalType": "address",
          "name": "",
          "type": "address"
        },
        {
          "internalType": "uint256",
          "name": "",
          "type": "uint256"
        }
      ],
      "name": "userMilestoneCompleted",
      "outputs": [
        {
          "internalType": "bool",
          "name": "",
          "type": "bool"
        }
      ],
      "stateMutability": "view",
      "type": "function"
    }
  ],
  "bytecode": "0x60806040523480156200001157600080fd5b5033604051806040016040528060088152602001672334ba2a37b5b2b760c11b8152506040518060400160405280600381526020016211925560ea1b81525081600390816200006191906200047a565b5060046200007082826200047a565b5050506001600160a01b038116620000a357604051631e4fbdf760e01b8152600060048201526024015b60405180910390fd5b620000ae8162000118565b506001600655620000ca3369d3c21bcecceda10000006200016a565b620000e26127106000678ac7230489e80000620001a8565b620000f96000600a67d02ab486cedc0000620001a8565b6200011261c350601468056bc75e2d63100000620001a8565b62000594565b600580546001600160a01b038381166001600160a01b0319831681179093556040519116919082907f8be0079c531659141344cd1fd0a4f28419497f9722a3daafe3b4186f6b6457e090600090a35050565b6001600160a01b038216620001965760405163ec442f0560e01b8152600060048201526024016200009a565b620001a46000838362000271565b5050565b620001b2620003a4565b6040805160808082018352858252602080830186815283850186815260016060808701828152600a80546000908152600888528a90209851895594519288019290925591516002870155516003909501805460ff1916951515959095179094555484519081529081018790529283018590529082018390527fdd9c8b628c5ee6e97f53a818750c89e0ff818c9250075b01cb58b42d99858943910160405180910390a1600a805490600062000267836200055c565b9190505550505050565b6001600160a01b038316620002a057806002600082825462000294919062000578565b90915550620003149050565b6001600160a01b03831660009081526020819052604090205481811015620002f55760405163391434e360e21b81526001600160a01b038516600482015260248101829052604481018390526064016200009a565b6001600160a01b03841660009081526020819052604090209082900390555b6001600160a01b038216620003325760028054829003905562000351565b6001600160a01b03821660009081526020819052604090208054820190555b816001600160a01b0316836001600160a01b03167fddf252ad1be2c89b69c2b068fc378daa952ba7f163c4a11628f55a4df523b3ef836040516200039791815260200190565b60405180910390a3505050565b6005546001600160a01b03163314620003d35760405163118cdaa760e01b81523360048201526024016200009a565b565b634e487b7160e01b600052604160045260246000fd5b600181811c908216806200040057607f821691505b6020821081036200042157634e487b7160e01b600052602260045260246000fd5b50919050565b601f8211156200047557600081815260208120601f850160051c81016020861015620004505750805b601f850160051c820191505b8181101562000471578281556001016200045c565b5050505b505050565b81516001600160401b03811115620004965762000496620003d5565b620004ae81620004a78454620003eb565b8462000427565b602080601f831160018114620004e65760008415620004cd5750858301515b600019600386901b1c1916600185901b17855562000471565b600085815260208120601f198616915b828110156200051757888601518255948401946001909101908401620004f6565b5085821015620005365787850151600019600388901b60f8161c191681555b5050505050600190811b01905550565b634e487b7160e01b600052601160045260246000fd5b60006001820162000571576200057162000546565b5060010190565b808201808211156200058e576200058e62000546565b92915050565b61115680620005a46000396000f3fe608060405234801561001057600080fd5b506004361061014d5760003560e01c80638a72a72a116100c3578063d32282771161007c578063d322827714610338578063dd62ed3e1461034b578063e0f3aa1114610384578063e89e4ed6146103ca578063f2fde38b14610424578063f7ea7dd31461043757600080fd5b80638a72a72a146102965780638da5cb5b146102a45780639201f663146102bf57806395d89b41146102c8578063985cc061146102d0578063a9059cbb1461032557600080fd5b80632442e1cb116101155780632442e1cb146101cb57806325de5efc14610213578063313ce5671461022857806370a0823114610237578063715018a614610260578063807eeb7e1461026857600080fd5b806306fdde031461015257806308fe55ee14610170578063095ea7b31461018d57806318160ddd146101b057806323b872dd146101b8575b600080fd5b61015a610447565b6040516101679190610edd565b60405180910390f35b61017f670de0b6b3a764000081565b604051908152602001610167565b6101a061019b366004610f47565b6104d9565b6040519015158152602001610167565b60025461017f565b6101a06101c6366004610f71565b6104f3565b6101de6101d9366004610fad565b610517565b604051610167919081518152602080830151908201526040808301519082015260609182015115159181019190915260800190565b610226610221366004610fc6565b61058e565b005b60405160128152602001610167565b61017f610245366004610ff2565b6001600160a01b031660009081526020819052604090205490565b610226610653565b6101a0610276366004610f47565b600960209081526000928352604080842090915290825290205460ff1681565b61017f66038d7ea4c6800081565b6005546040516001600160a01b039091168152602001610167565b61017f600a5481565b61015a610667565b6103056102de366004610ff2565b60076020526000908152604090208054600182015460028301546003909301549192909184565b604080519485526020850193909352918301526060820152608001610167565b6101a0610333366004610f47565b610676565b610226610346366004611014565b610684565b61017f610359366004611047565b6001600160a01b03918216600090815260016020908152604080832093909416825291909152205490565b610397610392366004610ff2565b6108c4565b60405161016791908151815260208083015190820152604080830151908201526060918201519181019190915260800190565b6104026103d8366004610fad565b60086020526000908152604090208054600182015460028301546003909301549192909160ff1684565b6040805194855260208501939093529183015215156060820152608001610167565b610226610432366004610ff2565b61093d565b61017f68056bc75e2d6310000081565b6060600380546104569061107a565b80601f01602080910402602001604051908101604052809291908181526020018280546104829061107a565b80156104cf5780601f106104a4576101008083540402835291602001916104cf565b820191906000526020600020905b8154815290600101906020018083116104b257829003601f168201915b5050505050905090565b6000336104e781858561097b565b60019150505b92915050565b600033610501858285610988565b61050c858585610a07565b506001949350505050565b61054460405180608001604052806000815260200160008152602001600081526020016000151581525090565b5060009081526008602090815260409182902082516080810184528154815260018201549281019290925260028101549282019290925260039091015460ff161515606082015290565b610596610a66565b6040805160808082018352858252602080830186815283850186815260016060808701828152600a80546000908152600888528a90209851895594519288019290925591516002870155516003909501805460ff1916951515959095179094555484519081529081018790529283018590529082018390527fdd9c8b628c5ee6e97f53a818750c89e0ff818c9250075b01cb58b42d99858943910160405180910390a1600a8054906000610649836110ca565b9190505550505050565b61065b610a66565b6106656000610a93565b565b6060600480546104569061107a565b6000336104e7818585610a07565b61068c610a66565b610694610ae5565b6001600160a01b0383166106e65760405162461bcd60e51b8152602060048201526014602482015273496e76616c69642075736572206164647265737360601b60448201526064015b60405180910390fd5b60008211806106f55750600081115b6107385760405162461bcd60e51b8152602060048201526014602482015273139bc81858dd1a5d9a5d1e481c9958dbdc99195960621b60448201526064016106dd565b6001600160a01b03831660009081526007602052604081209061076266038d7ea4c68000856110e3565b90506000610778670de0b6b3a7640000856110e3565b9050600061078682846110fa565b90506201518084600201544261079c919061110d565b10156107fb5768056bc75e2d631000008111156107fb5760405162461bcd60e51b815260206004820152601a60248201527f4461696c7920746f6b656e206c696d697420657863656564656400000000000060448201526064016106dd565b8584600001600082825461080f91906110fa565b925050819055508484600101600082825461082a91906110fa565b909155505042600285015560038401805482919060009061084c9084906110fa565b9091555061085c90508782610b0f565b61086587610b49565b60408051878152602081018790529081018290526001600160a01b038816907fac3c2beb7724a927c9efcb9aa36d9cc3215467ad97652337ec58c5527ba70e539060600160405180910390a2505050506108bf6001600655565b505050565b6108ef6040518060800160405280600081526020016000815260200160008152602001600081525090565b506001600160a01b0316600090815260076020908152604091829020825160808101845281548152600182015492810192909252600281015492820192909252600390910154606082015290565b610945610a66565b6001600160a01b03811661096f57604051631e4fbdf760e01b8152600060048201526024016106dd565b61097881610a93565b50565b6108bf8383836001610cde565b6001600160a01b03838116600090815260016020908152604080832093861683529290522054600019811015610a0157818110156109f257604051637dc7a0d960e11b81526001600160a01b038416600482015260248101829052604481018390526064016106dd565b610a0184848484036000610cde565b50505050565b6001600160a01b038316610a3157604051634b637e8f60e11b8152600060048201526024016106dd565b6001600160a01b038216610a5b5760405163ec442f0560e01b8152600060048201526024016106dd565b6108bf838383610db3565b6005546001600160a01b031633146106655760405163118cdaa760e01b81523360048201526024016106dd565b600580546001600160a01b038381166001600160a01b0319831681179093556040519116919082907f8be0079c531659141344cd1fd0a4f28419497f9722a3daafe3b4186f6b6457e090600090a35050565b600260065403610b0857604051633ee5aeb560e01b815260040160405180910390fd5b6002600655565b6001600160a01b038216610b395760405163ec442f0560e01b8152600060048201526024016106dd565b610b4560008383610db3565b5050565b6001600160a01b0381166000908152600760209081526040808320815160808101835281548152600182015493810193909352600281015491830191909152600301546060820152905b600a548110156108bf5760008181526008602090815260409182902082516080810184528154815260018201549281019290925260028101549282019290925260039091015460ff161580156060830181905290610c1557506001600160a01b038416600090815260096020908152604080832085845290915290205460ff16155b8015610c2357508051835110155b8015610c3757508060200151836020015110155b15610ccb576001600160a01b038416600090815260096020908152604080832085845290915290819020805460ff19166001179055810151610c7a908590610b0f565b836001600160a01b03167ff43bfc498688ec8f5ca2efe35ba87cb7b4f33c139cb2dc8e3f795527e3f08ccc838360400151604051610cc2929190918252602082015260400190565b60405180910390a25b5080610cd6816110ca565b915050610b93565b6001600160a01b038416610d085760405163e602df0560e01b8152600060048201526024016106dd565b6001600160a01b038316610d3257604051634a1406b160e11b8152600060048201526024016106dd565b6001600160a01b0380851660009081526001602090815260408083209387168352929052208290558015610a0157826001600160a01b0316846001600160a01b03167f8c5be1e5ebec7d5bd14f71427d1e84f3dd0314c0f7b2291e5b200ac8c7c3b92584604051610da591815260200190565b60405180910390a350505050565b6001600160a01b038316610dde578060026000828254610dd391906110fa565b90915550610e509050565b6001600160a01b03831660009081526020819052604090205481811015610e315760405163391434e360e21b81526001600160a01b038516600482015260248101829052604481018390526064016106dd565b6001600160a01b03841660009081526020819052604090209082900390555b6001600160a01b038216610e6c57600280548290039055610e8b565b6001600160a01b03821660009081526020819052604090208054820190555b816001600160a01b0316836001600160a01b03167fddf252ad1be2c89b69c2b068fc378daa952ba7f163c4a11628f55a4df523b3ef83604051610ed091815260200190565b60405180910390a3505050565b600060208083528351808285015260005b81811015610f0a57858101830151858201604001528201610eee565b506000604082860101526040601f19601f8301168501019250505092915050565b80356001600160a01b0381168114610f4257600080fd5b919050565b60008060408385031215610f5a57600080fd5b610f6383610f2b565b946020939093013593505050565b600080600060608486031215610f8657600080fd5b610f8f84610f2b565b9250610f9d60208501610f2b565b9150604084013590509250925092565b600060208284031215610fbf57600080fd5b5035919050565b600080600060608486031215610fdb57600080fd5b505081359360208301359350604090920135919050565b60006020828403121561100457600080fd5b61100d82610f2b565b9392505050565b60008060006060848603121561102957600080fd5b61103284610f2b565b95602085013595506040909401359392505050565b6000806040838503121561105a57600080fd5b61106383610f2b565b915061107160208401610f2b565b90509250929050565b600181811c9082168061108e57607f821691505b6020821081036110ae57634e487b7160e01b600052602260045260246000fd5b50919050565b634e487b7160e01b600052601160045260246000fd5b6000600182016110dc576110dc6110b4565b5060010190565b80820281158282048414176104ed576104ed6110b4565b808201808211156104ed576104ed6110b4565b818103818111156104ed576104ed6110b456fea26469706673582212202ddceab8014b90afad1034089c95f4a7ca15bb77aba43dfab95e5c19ef72581464736f6c63430008140033",
  "linkReferences": {},
  "deployedLinkReferences": {}
}